:03000000020008F3
:0300610002000397
:0500030012013980FE2E
:08006400AA82AB83850C2A85FA
:03006C000D2B85D4
:03006F00122C85CB
:03007200132D85C6
:030075000E2E85C7
:030078000F2F85C2
:0A007B000882850983C002C0031249
:040085001A81850A4D
:030089002A850BBA
:03008C002B8514AD
:03008F002C8515A8
:030092002D850EAB
:030095002E850FA6
:050098002F8512828596
:0A009D001383121A81D003D00285EC
:0300A7001420859D
:0300AA0015218598
:0300AD0014228595
:0300B00015238590
:0300B30010248591
:0700B60011258A828B8302F1
:0200BD0019FF29
:0C00BF00AA82AB839002FF7401F0851848
:0300CB002A85196A
:0400CE002B8A2C8BC2
:0300D2002D851A5F
:0300D5002E851B5A
:0C00D8002F8A828B83C002C003121A81A1
:0A00E400D003D002752080752102C0
:0500EE008A228B23852E
:0300F3001C248545
:0A00F6001D258A828B83C002C0031F
:090100001219FFD003D002851C86
:0301090026851D2B
:04010C00278A288B8B
:0C011000298A828B83C002C003121A5897
:08011C00D003D00285162085F6
:030124001721851B
:030127001E228510
:03012A001F23850B
:03012D001C24850A
:070130001D258A828B83026A
:0201370019FFAE
:0D01390090000074A1F090000174B0F090EF
:0E0146000002745AF09000037436F09000042A
:0E0154007472F0900005742CF0900006741880
:0E016200F090000774F0F090000874FCF0902C
:0E0170000009745EF090000A741BF090000B02
:0E017E00746CF090000C7479F090000D7428F1
:0E018C00F090000E745CF090000F74F3F09091
:0E019A000010743AF090001174C0F090001242
:0E01A800741EF0900013740EF0900014746436
:0E01B600F09000157499F090001674FDF09012
:0E01C400001774CFF0900018741FF09000190F
:0E01D200746FF090001A744BF090001B74D301
:0E01E000F090001C743EF090001D74C2F09070
:0E01EE00001E74C8F090001F7445F0900020B1
:0E01FC007451F09000217415F090002274CE22
:0E020A00F090002374E8F090002474F9F09056
:0E0218000025741AF09000267463F090002701
:0E0226007468F09000287487F09000297487A7
:0E023400F090002A74E1F090002B74BCF09062
:0E024200002C7401F090002D74BFF090002E7F
:0E0250007470F090002F7420F0900030741A3B
:0E025E00F090003174C8F0900032744CF090B3
:0E026C000033749DF090003474EBF090003578
:0E027A0074A9F090003674CCF090003774ED4B
:0E028800F09000387489F09000397419F090ED
:0E029600003A7434F090003B74B7F090003CD6
:0E02A40074EEF090003D7466F090003E74A180
:0E02B200F090003F749AF090004074DBF090E2
:0E02C0000041746DF090004274A3F090004372
:0E02CE0074BEF090004474DBF090004574158F
:0E02DC00F0900046748AF09000477411F09084
:0E02EA0000487483F09000497462F090004A5E
:0E02F8007422F090004B7453F090004C74048C
:0D030600F090004D74A1F090004EE4F090D6
:0E031300004F7451F09000507426F09000518D
:0E03210074E8F090005274EEF090005374D81F
:0E032F00F09000547425F09000557421F09069
:0E033D0000567489F090005774F2F09000584A
:0E034B007467F090005974C7F090005A740463
:0E035900F090005B7444F090005C7483F090B0
:0E036700005D7497F090005E744EF090005FA1
:0E0375007434F09000607421F090006174FE0A
:0E038300F0900062740EF090006374FAF09037
:0E039100006474BBF0900065746FF09000661D
:0E039F007437F09000677464F0900068740A80
:0E03AD00F09000697426F090006A7430F090B1
:0E03BB00006B7405F090006C747DF090006D86
:0E03C90074ACF090006E741CF090006F748E97
:0E03D700F090007074A5F09000717499F09091
:0E03E50000727439F090007374DFF0900074B1
:0E03F300745AF090007574A9F090007674E7CB
:0E040100F09000777411F09000787493F090F2
:0E040F00007974CEF090007A7487F090007B34
:0E041D0074BCF090007C7494F090007D747BB1
:0E042B00F090007E7458F090007F745FF090A7
:0E043900008074C8F09000817463F09000821F
:0E0447007416F09000837432F090008474FEFE
:0E045500F0900085749EF090008674A1F090E7
:0E04630000877468F0900088746FF090008934
:0E04710074CDF090008A748FF090008B745060
:0E047F00F090008C7448F090008D7455F09051
:0E048D00008E7458F090008F74B7F0900090BD
:0E049B0074B5F09000917464F0900092740DAE
:0E04A900F09000937487F090009474ACF09083
:0E04B7000095746FF090009674F8F090009726
:0E04C500E4F0900098749CF0900099746BF035
:0D04D30090009A741FF090009B7469F090E7
:0E04E000009C740BF090009D7454F090009EF0
:0E04EE0074CFF090009F7484F09000A074779B
:0E04FC00F09000A174B0F09000A274F1F090A6
:0E050A0000A374E8F09000A47417F09000A510
:0E05180074E4F09000A67488F09000A7745769
:0E052600F09000A8742DF09000A974B6F0902B
:0E05340000AA7440F09000AB74A9F09000ACE7
:0E054200749DF09000AD74B8F09000AE741F80
:0E055000F09000AF7460F09000B074D9F0909D
:0E055E0000B174E1F09000B2744BF09000B365
:0E056C0074DBF09000B47445F09000B5740696
:0E057A00F09000B67402F09000B7744FF0904D
:0E05880000B8745AF09000B97406F09000BAF2
:0E05960074ADF09000BB741AF09000BC74FDC0
:0E05A400F09000BD7445F09000BE748DF09094
:0E05B20000BF7459F09000C0749DF09000C11D
:0E05C0007479F09000C27446F09000C374DCB1
:0E05CE00F09000C474C7F09000C57497F090D0
:0E05DC0000C67402F09000C77450F09000C882
:0E05EA00741AF09000C9742CF09000CA74F8D6
:0E05F800F09000CB7427F09000CC74ADF09022
:0E06060000CD74ECF09000CE7404F09000CFA4
:0E06140074D7F09000D07401F09000D1748F74
:0E062200F09000D27468F09000D37442F09013
:0E06300000D47499F09000D574A3F09000D619
:0E063E00744FF09000D774CFF09000D874A2E3
:0E064C00F09000D974EBF09000DA7419F09081
:0E065A0000DB7441F09000DC7450F09000DD85
:0E0668007479F09000DE7469F09000DF747613
:0E067600F09000E07447F09000E1748DF09079
:0E06840000E27464F09000E37489F09000E4EA
:0E0692007453F09000E57495F09000E6743318
:0E06A000F09000E7747AF09000E87413F09088
:0E06AE0000E974B3F09000EA7410F09000EBD5
:0E06BC0074BFF09000EC74F6F09000ED740A3C
:0E06CA00F09000EE741EF09000EF74C2F090FD
:0E06D80000F07450F09000F17438F09000F2D1
:0E06E60074C9F09000F37431F09000F47403C6
:0E06F400F09000F57436F09000F67403F0906C
:0E07020000F7746CF09000F8742FF09000F97E
:0E0710007460F09000FA74AAF09000FB749CE4
:0E071E00F09000FC74BAF09000FD74C2F090F0
:0E072C0000FE7409F09000FF7401F0900100CF
:0E073A007437F0900101749CF090010274E994
:0E074800F090010374CDF09001047401F09064
:0E07560001057461F0900106745EF0900107D9
:0E0764007497F09001087490F09001097432BF
:0E077200F090010A7470F090010B74AFF090DB
:0E078000010C74B7F090010D74AAF090010EF8
:0E078E0074A7F090010F7448F0900110744AA7
:0E079C00F0900111749BF090011274F2F09035
:0E07AA0001137478F09001147453F09001154F
:0E07B8007490F09001167407F090011774FF12
:0E07C600F09001187463F09001197494F09093
:0E07D400011A74E0F090011B7496F090011C65
:0E07E20074F4F090011D74ABF090011E7430A1
:0E07F000F090011F747BF09001207488F0904F
:0E07FE000121744FF0900122740EF09001233F
:0E080C007417F090012474E8F0900125741B1D
:0E081A00F09001267477F090012774A8F090FA
:0E082800012874D2F09001297449F090012A41
:0E08360074BFF090012B7456F090012C746288
:0E084400F090012D7447F090012E74E0F090BA
:0E085200012F749FF09001307426F090013158
:0E086000741EF090013274B4F09001337424D1
:0E086E00F090013474BAF090013574F9F090F6
:0E087C00013674FDF090013774B0F090013831
:0E088A0074A5F090013974F9F090013A74529F
:0E089800F090013B74E5F090013C7402F0908A
:0E08A600013D74BAF090013E7472F090013F73
:0E08B40074A6F09001407462F09001417486C9
:0E08C200F090014274B9F09001437423F0905D
:0E08D00001447438F09001457468F0900146C0
:0E08DE0074FDF090014774AFF090014874E58E
:0E08EC00F090014974D3F090014A7407F09027
:0E08FA00014B74D8F090014C7452F090014DF7
:0E0908007413F090014E74FBF090014F7428B0
:0E091600F090015074FEF09001517470F0905A
:0E09240001527497F090015374BDF09001548D
:0E0932007466F0900155745CF090015674B03C
:0E094000F09001577430F0900158745DF09003
:0E094E0001597414F090015A74E6F090015BA8
:0E095C0074BEF090015C74AFF090015D748683
:0E096A00F090015E7496F090015F7489F09039
:0E097800016074B8F09001617472F090016239
:0E098600749BF09001637476F090016474AC81
:0E099400F0900165746AF090016674CCF090EA
:0E09A20001677485F090016874ECF0900169B3
:0E09B000744CF090016A74EFF090016B74408B
:0E09BE00F090016C7409F090016D74F5F090EA
:0E09CC00016E74E1F090016F743DF0900170C7
:0E09DA0074AFF090017174C7F0900172743622
:0E09E800F090017374CEF090017474FCF090E6
:0E09F600017574C9F090017674FCF0900177E1
:0E0A04007493F090017874D0F0900179749F93
:0E0A1200F090017A7455F090017B7463F090BF
:0E0A2000017C7445F090017D743DF090017EE4
:0E0A2E0074F6F090017F74FFF0900180746BFD
:0E0A3C00F090018174F5F0900182741AF09030
:0E0A4A00018374A2F090018474D3F0900185B2
:0E0A5800E4F09001867484F0900187741EF023
:0D0A6600900188747FF090018974A9F090D0
:0E0A7300018A74FCF090018B7447F090018CA6
:0E0A810074DFF090018D7478F090018E74682F
:0E0A8F00F090018F744EF090019074BCF090C6
:0E0A9D000191744AF090019274EDF090019373
:0E0AAB007449F09001947461F0900195748884
:0E0AB900F09001967459F09001977483F090BC
:0E0AC70001987464F0900199748DF090019A7A
:0E0AD50074E3F090019B740FF090019C74C5C7
:0E0AE300F090019D7456F090019E74F6F09014
:0E0AF100019F7408F09001A07489F09001A19B
:0E0AFF0074EFF09001A274E9F09001A374313D
:0E0B0D00F09001A474CDF09001A57474F090E6
:0E0B1B0001A674A3F09001A774FAF09001A84F
:0E0B2900740FF09001A974F8F09001AA7443C3
:0E0B3700F09001AB7413F09001AC74A5F09037
:0E0B450001AD74B5F09001AE744FF09001AFA9
:0E0B53007413F09001B07437F09001B1741D6E
:0E0B6100F09001B27404F09001B3746FF09044
:0E0B6F0001B4746AF09001B57474F09001B690
:0E0B7D007497F09001B7741BF09001B87430BB
:0E0B8B00F09001B97458F09001BA7447F090E0
:0E0B990001BB742EF09001BC7430F09001BDD1
:0E0BA7007408F09001BE7479F09001BF74D80C
:0E0BB500F09001C07451F09001C17445F090B1
:0E0BC30001C27464F09001C374E4F09001C4A8
:0E0BD1007448F09001C5746CF09001C6744237
:0E0BDF00F09001C774F1F09001C87428F090F6
:0E0BED0001C974BCF09001CA74D7F09001CB1E
:0E0BFB0074CCF09001CC742CF09001CD7443BA
:0E0C0900F09001CE74D7F09001CF7435F090CA
:0E0C170001D07429F09001D17453F09001D2F5
:0E0C25007486F09001D374EDF09001D474B495
:0E0C3300F09001D57410F09001D6741CF09072
:0E0C410001D774C5F09001D874E3F09001D98A
:0E0C4F007470F09001DA741FF09001DB74A253
:0E0C5D00F09001DC74E3F09001DD742FF09054
:0E0C6B0001DE748FF09001DF74BCF09001E0A8
:0E0C79007425F09001E17476F09001E274733E
:0E0C8700F09001E3740CF09001E474BAF09068
:0E0C950001E57405F09001E6743DF09001E772
:0E0CA30074F8F09001E87411F09001E9741AF1
:0E0CB100F09001EA74D5F09001EB7414F0900D
:0E0CBF0001EC7452F09001ED74E3F09001EE40
:0E0CCD0074AEF09001EF744BF09001F074B231
:0E0CDB00F09001F1748EF09001F274F3F0903D
:0E0CE90001F374E4F09001F47493F09001F5BF
:0E0CF7007484F09001F67476F09001F7747337
:0E0D0500F09001F8746EF09001F974F0F09027
:0E0D130001FA7445F09001FB74E2F09001FCCF
:0E0D210074A4F09001FD745AF09001FE74E984
:0E0D2F00F09001FF748AF090020074C2F09000
:0E0D3D00020174CEF0900202749AF09002034C
:0E0D4B007467F0900204749AF0900205742907
:0E0D5900F090020674CFF09002077415F0902F
:0E0D6700020874BBF0900209745BF090020A5F
:0E0D75007459F090020B7443F090020C74D08D
:0E0D8300F090020D7433F090020E7416F09092
:0E0D9100020F7414F0900210744EF0900211D4
:0E0D9F0074B4F09002127487F090021374D8AE
:0E0DAD00F090021474BBF090021574B8F09030
:0E0DBB000216742CF090021774E0F0900218EB
:0E0DC90074D3F09002197417F090021A74732C
:0E0DD700F090021B74BDF090021C741BF09093
:0E0DE500021D7471F090021E74DAF090021F6D
:0E0DF30074C6F09002207418F090022174CCA7
:0E0E0100F09002227448F09002237473F09077
:0E0E0F00022474C9F090022574E9F0900226C6
:0E0E1D00745BF090022774DAF090022874E8FB
:0E0E2B00F090022974A5F090022A7429F0902C
:0E0E3900022B7441F090022C74CBF090022D2D
:0E0E470074A4F090022E74E5F090022F7474E3
:0E0E5500F0900230749CF0900231749EF09088
:0E0E6300023274DDF090023374E4F090023439
:0E0E710074D2F090023574D7F09002367427D8
:0E0E7F00F090023774EDF090023874C8F090D5
:0E0E8D00023974D3F090023A74A6F090023B42
:0E0E9B007447F090023C7419F090023D7460B0
:0E0EA900F090023E7434F090023F7428F090F6
:0E0EB700024074B0F09002417424F0900242A8
:0E0EC50074A5F09002437478F090024474BC5F
:0E0ED300F090024574B1F090024674F4F09075
:0E0EE1000247745DF09002487412F0900249CE
:0E0EEF0074F2F090024A74B1F090024B74F06D
:0E0EFD00F090024C743EF090024D7468F0903C
:0E0F0B00024E7430F090024F74FAF0900250D3
:0E0F19007444F090025174F8F0900252743C4F
:0E0F2700F09002537496F09002547430F090E3
:0E0F350002557465F09002567413F090025746
:0E0F43007489F090025874A7F0900259747BE4
:0E0F5100F090025A7464F090025B74C5F09048
:0E0F5F00025C742AF090025D7442F090025E13
:0E0F6D00741BF090025F7451F0900260744E9D
:0E0F7B00F090026174E1F0900262746BF090ED
:0E0F89000263740CF0900264744DF0900265E7
:0E0F970074D7F090026674E7F0900267741948
:0E0FA500F09002687450F0900269743CF09075
:0E0FB300026A7449F090026B743FF090026C79
:0E0FC10074DEF090026D74A1F090026E74A5C3
:0E0FCF00F090026F74C2F0900270747EF09089
:0E0FDD000271740BF0900272746EF090027349
:0E0FEB007417F09002747430F09002757479EF
:0E0FF900F090027674FFF0900277740DF09085
:0E1007000278746AF09002797465F090027AB3
:0E10150074AEF090027B7427F090027C749F02
:0E102300F090027D7433F090027E745BF090CA
:0E103100027F7429F0900280E4F0900281F0BA
:0E103F00900282F0900283F0900284E4F09020
:0E104D000285F0900286F0900287F0900288F3
:0E105B00E4F0900289F090028AF090028BF08F
:0E10690090028CE4F090028DF090028EF090D8
:0D107700028FF0900290E4F0900291F09052
:0D1084000292F0900293F0900294E4F0903C
:0E1091000295F0900296F0900297F09002986F
:0E109F00E4F0900299F090029AF090029BF01B
:0E10AD0090029CE4F090029DF090029EF09064
:0D10BB00029FF09002A0E4F09002A1F090DE
:0D10C80002A2F09002A3F09002A4E4F090C8
:0E10D50002A5F09002A6F09002A7F09002A8EB
:0E10E300E4F09002A9F09002AAF09002ABF0A7
:0E10F1009002ACE4F09002ADF09002AEF090F0
:0D10FF0002AFF09002B0E4F09002B1F0906A
:0D110C0002B2F09002B3F09002B4E4F09053
:0E11190002B5F09002B6F09002B7F09002B866
:0E112700E4F09002B9F09002BAF09002BBF032
:0E1135009002BCE4F09002BDF09002BEF0907B
:0D11430002BFF09002C0E4F09002C1F090F5
:0D11500002C2F09002C3F09002C4E4F090DF
:0E115D0002C5F09002C6F09002C7F09002C8E2
:0E116B00E4F09002C9F09002CAF09002CBF0BE
:0E1179009002CCE4F09002CDF09002CEF09007
:0D11870002CFF09002D0E4F09002D1F09081
:0D11940002D2F09002D3F09002D4E4F0906B
:0E11A10002D5F09002D6F09002D7F09002D85E
:0E11AF00E4F09002D9F09002DAF09002DBF04A
:0E11BD009002DCE4F09002DDF09002DEF09093
:0D11CB0002DFF09002E0E4F09002E1F0900D
:0D11D80002E2F09002E3F09002E4E4F090F7
:0E11E50002E5F09002E6F09002E7F09002E8DA
:0E11F300E4F09002E9F09002EAF09002EBF0D6
:0E1201009002ECE4F09002EDF09002EEF0901E
:0D120F0002EFF09002F0E4F09002F1F09098
:0D121C0002F2F09002F3F09002F4E4F09082
:0E12290002F5F09002F6F09002F7F09002F855
:0E123700E4F09002F9F09002FAF09002FBF061
:0E1245009002FCE4F09002FDF09002FEF090AA
:0D12530002FFF0900400E4F0900401F09020
:0D1260000402F0900403F0900404E4F09008
:0E126D000405F0900406F0900407F0900408C9
:0E127B00E4F0900409F090040AF090040BF0E7
:0E12890090040CE4F090040DF090040EF09030
:0D129700040FF0900410E4F0900411F090AA
:0D12A4000412F0900413F0900414E4F09094
:0E12B1000415F0900416F0900417F090041845
:0E12BF00E4F0900419F090041AF090041BF073
:0E12CD0090041CE4F090041DF090041EF090BC
:0D12DB00041FF0900420E4F0900421F09036
:0D12E8000422F0900423F0900424E4F09020
:0E12F5000425F0900426F0900427F0900428C1
:0E130300E4F0900429F090042AF090042BF0FE
:0E13110090042CE4F090042DF090042EF09047
:0D131F00042FF0900430E4F0900431F090C1
:0D132C000432F0900433F0900434E4F090AB
:0E1339000435F0900436F0900437F09004383C
:0E134700E4F0900439F090043AF090043BF08A
:0E13550090043CE4F090043DF090043EF090D3
:0D136300043FF0900440E4F0900441F0904D
:0D1370000442F0900443F0900444E4F09037
:0E137D000445F0900446F0900447F0900448B8
:0E138B00E4F0900449F090044AF090044BF016
:0E13990090044CE4F090044DF090044EF0905F
:0D13A700044FF0900450E4F0900451F090D9
:0D13B4000452F0900453F0900454E4F090C3
:0E13C1000455F0900456F0900457F090045834
:0E13CF00E4F0900459F090045AF090045BF0A2
:0E13DD0090045CE4F090045DF090045EF090EB
:0D13EB00045FF0900460E4F0900461F09065
:0D13F8000462F0900463F0900464E4F0904F
:0E1405000465F0900466F0900467F0900468AF
:0E141300E4F0900469F090046AF090046BF02D
:0E14210090046CE4F090046DF090046EF09076
:0E142F00046FF09004707422F09004717499B0
:0E143D00F09004727406F09004737429F0901D
:0E144B00047474D7F09004757460F090047609
:0E145900748AF090047774F4F090047874753F
:0E146700F09004797430F090047A741EF090C6
:0E147500047B74A6F090047C74CEF090047D8D
:0E148300742BF090047E7427F090047F74BAEE
:0E149100F0900480E4F0900481F0900482F06A
:0E149F00900483F0900484E4F0900485F090B3
:0D14AD000486F0900487F0900488E4F0902D
:0E14BA000489F090048AF090048BF090048C6A
:0E14C800E4F090048DF090048EF090048FF00C
:0E14D600900490E4F0900491F0900492F09055
:0D14E4000493F0900494E4F0900495F090CF
:0D14F1000496F0900497F0900498E4F090B9
:0E14FE000499F090049AF090049BF090049CE6
:0E150C00E4F090049DF090049EF090049FF097
:0E151A009004A0E4F09004A1F09004A2F090E0
:0D15280004A3F09004A4E4F09004A5F0905A
:0D15350004A6F09004A7F09004A8E4F09044
:0E15420004A9F09004AAF09004ABF09004AC61
:0E155000E4F09004ADF09004AEF09004AFF023
:0E155E009004B0E4F09004B1F09004B2F0906C
:0D156C0004B3F09004B4E4F09004B5F090E6
:0D15790004B6F09004B7F09004B8E4F090D0
:0E15860004B9F09004BAF09004BBF09004BCDD
:0E159400E4F09004BDF09004BEF09004BFF0AF
:0E15A2009004C0E4F09004C1F09004C2F090F8
:0D15B00004C3F09004C4E4F09004C5F09072
:0D15BD0004C6F09004C7F09004C8E4F0905C
:0E15CA0004C9F09004CAF09004CBF09004CC59
:0E15D800E4F09004CDF09004CEF09004CFF03B
:0E15E6009004D0E4F09004D1F09004D2F09084
:0D15F40004D3F09004D4E4F09004D5F090FE
:0D16010004D6F09004D7F09004D8E4F090E7
:0E160E0004D9F09004DAF09004DBF09004DCD4
:0E161C00E4F09004DDF09004DEF09004DFF0C6
:0E162A009004E0E4F09004E1F09004E2F0900F
:0D16380004E3F09004E4E4F09004E5F09089
:0D16450004E6F09004E7F09004E8E4F09073
:0E16520004E9F09004EAF09004EBF09004EC50
:0E166000E4F09004EDF09004EEF09004EFF052
:0D166E009004F074F0F09004F1742EF090F0
:0E167B0004F27420F09004F37435F09004F43F
:0E16890074A4F09004F57449F09004F674DD3A
:0E169700F09004F7741CF09004F87408F090C2
:0E16A50004F9745AF09004FA7499F09004FB62
:0E16B30074A4F09004FC74EDF09004FD74112A
:0E16C100F09004FE7404F09004FF743CF0906E
:0A16CF0002FF7401F0752080752100
:0816D90001752200752305755F
:0916E10024807525009000001220
:0616EA0019FF7520807558
:0616F00021017522807546
:0616F60023057524807538
:0916FC0025009002001219FF758F
:061705000880750905755E
:06170B000A00750B0475D5
:061711000C80750D04754B
:061717000E00750F0175C4
:06171D001080751100753B
:06172300120075130375AE
:09172900148075150390050012EF
:06173200006475208075C3
:061738002102752200757C
:06173E00230375248075F1
:0917440025009003001219FF12A8
:06174D0019F17520807502
:06175300210275228075E1
:06175900230375248075D6
:09175F0025009003801219FF120D
:0617680019F175208075E7
:06176E0021017522007547
:06177400230375248075BB
:09177A0025009003001219FF750F
:06178300208075210175B4
:06178900228075230375A8
:09178F00248075250090038012EE
:0617980019FF75168075B3
:06179E0017037518007529
:0617A4001904751A00751E
:0617AA001B01751C807597
:0617B0001D00751E00750E
:0917B6001F009003001200BF7532
:0617BF0020807521027577
:0617C500220075230075EF
:0917CB0024807525009000001235
:0917D40019FF1219F175B055223C
:0717DD008582348583357518
:0617E4003A007D007E00CA
:0C17EA0074FF2E4013ED2532F582EE3521
:0C17F60033F583E4F00DBD00EB0E80E83D
:0618020075367FE4F537A6
:06180800E53730E7012284
:06180E00E5362534FFE57C
:05181400373535F875C1
:05181900387FE4F53901
:0C181E00E53920E75B8F828883E0FBE562
:06182A00382530F582E5CF
:0A183000393531F583E08BF0A4FC9C
:08183A00ABF0E5382536FDE5B1
:09184200393537FE0DBD00010E21
:0A184B00ED2532FDEE3533FE8D82EF
:0C1855008E83E079002CFCE93BFBAA3AF2
:0E1861007900EA2CFCE93BFB8C028D828E8321
:09186F00EAF08B3A153874FFB55C
:0418780038021539E4
:02187C0080A04A
:07187E00E5362532F582E595
:06188500373533F583E561
:06188B003AF0753A001569
:071891003674FFB5360215A5
:011898003718
:031899000218082A
:08189C008582338583347C0052
:0C18A400AD327E00ED24FFFFEE34FFF8B3
:0E18B0008C017A00C3E99FEA648088F063F03F
:0C18BE008095F0502CEC2533F582E435C9
:0A18CA0034F583E0FAEC2530F582D6
:0C18D400E43531F583E0FBC39A50047545
:0318E00082012260
:0918E300C3EA9B50047582002247
:0318EC000C80B5B8
:0518EF001DBDFF011EFC
:0A18F400ED2533F582EE3534F5835F
:0A18FE00E0FAED2530F582EE3531F9
:0D190800F583E0FBC3EA9BE433FAB4010071
:05191500E433F582221D
:0C191A00E582247FF582AA82AB83853031
:0C19260082853183E582247FF582AC824B
:0A193200AD83853282853383E582A0
:0A193C00247FF582AE82AF8378802D
:0E1946008A828B83E0F98C828D83E0398E8259
:0E1954008F83F01A1C1ED8EA74003400F5824E
:011962002262
:0C196300E582247FF582AA82AB838530E8
:0C196F0082853183E582247FF582AC8202
:0A197B00AD83853282853383E58257
:0A198500247FF582AE82AF837880E4
:0E198F008C828D83E0F98A828B83E0998E82B0
:0E199D008F83F01A1C1ED8EA74003400F58205
:0119AB002219
:0A19AC00AA82AB83AC30AD317E009F
:0219B6007F00B0
:0E19B800C3EE9480EF64809480501D8C828D6D
:0E19C60083E0F8A3AC82AD838A828B83E8F0C5
:0C19D400A3AA82AB830EBE00DB0F80D8FC
:0119E00022E4
:0619E100759001759002F3
:0A19E700900800E060FA75900322FA
:0E19F10090078074FFF0900781E4F00219E186
:0A19FF0085823085833190060012C6
:041A090019AC85206F
:031A0D0030852100
:081A1000319006801219AC852B
:031A1800243085F2
:061A1B00253190070012C6
:0E1A210019AC9007807403F09007817440F0B8
:0D1A2F009007827445F09007837401F090D9
:0E1A3C0007847450F0900785E4F01219E175EC
:061A4A0030007531068535
:061A5000228285238302BF
:021A560019ACC9
:0D1A58009007807403F09007817499F0905E
:0E1A650007827450F0900783E4F01219E175C7
:061A73003000753106850C
:061A79002882852983028A
:021A7F0019ACA0
:081A8100AA82AB83852E30859B
:0A1A89002F31900600C002C00312C6
:091A930019ACD003D0028A308B9B
:0B1A9C00319006801219AC7A007B002C
:0A1AA700EA252AF582EB352BF583C2
:061AB100E0FC600280125F
:0E1AB700C3EA9480EB6480948050070ABA0062
:041AC500E10B80DED3
:0E1AC9009007807440F07C027D0090078174CD
:021AD70045F0D8
:0E1AD900C3EA9480EB648094804003021CA555
:0A1AE700EA252AF582EB352BF58382
:0B1AF100E0FE8C078D000CBC00010D16
:0E1AFC00EF2480F582E83407F5837402F0EEE3
:0C1B0A0030E7168C078D000CBC00010DAC
:0D1B1600EF2480F582E83407F5837401F0B8
:091B23008C078D000CBC00010DC3
:0E1B2C00EF2480F582E83407F5837402F0EEB2
:0C1B3A0030E6168C078D000CBC00010D7D
:0D1B4600EF2480F582E83407F5837401F088
:091B53008C078D000CBC00010D93
:0E1B5C00EF2480F582E83407F5837402F0EE82
:0C1B6A0030E5168C078D000CBC00010D4E
:0D1B7600EF2480F582E83407F5837401F058
:091B83008C078D000CBC00010D63
:0E1B8C00EF2480F582E83407F5837402F0EE52
:0C1B9A0030E4168C078D000CBC00010D1F
:0D1BA600EF2480F582E83407F5837401F028
:091BB3008C078D000CBC00010D33
:0E1BBC00EF2480F582E83407F5837402F0EE22
:0C1BCA0030E3168C078D000CBC00010DF0
:0D1BD600EF2480F582E83407F5837401F0F8
:091BE3008C078D000CBC00010D03
:0E1BEC00EF2480F582E83407F5837402F0EEF2
:0C1BFA0030E2168C078D000CBC00010DC1
:0D1C0600EF2480F582E83407F5837401F0C7
:091C13008C078D000CBC00010DD2
:0E1C1C00EF2480F582E83407F5837402F0EEC1
:0C1C2A0030E1168C078D000CBC00010D91
:0D1C3600EF2480F582E83407F5837401F097
:091C43008C078D000CBC00010DA2
:0E1C4C00EF2480F582E83407F5837402F0EE91
:0C1C5A0030E0168C068D070CBC00010D5C
:0D1C6600EE2480F582EF3407F5837401F061
:0E1C7300C374649C74808DF063F08095F05013
:0E1C81001BEC2480F582ED3407F583E4F0C0FF
:0E1C8F0002C0031219E1D003D0027C007D00D8
:051C9D000ABA00010B72
:031CA200021AD94A
:091CA5008C028D030CBC00010D42
:0E1CAE00EA2480F582EB3407F5837450F0ECE5
:0E1CBC002480F582ED3407F583E4F01219E17F
:071CCA00753000753106853D
:061CD1002C82852D830228
:021CD70019AC46
:06003700E4787FF6D8FD1D
:080015007900E94400601B7A48
:05001D0000901CDD78DD
:030022000075A0C6
:0A00250000E493F2A308B8000205FE
:08002F00A0D9F4DAF275A0FF7C
:08003D007800E84400600A7934
:030045000075A0A3
:0600480000E4F309D8FCFE
:08004E007800E84400600C7921
:0B00560000900000E4F0A3D8FCD9FAF1
:0300080075813AC5
:0A000B00121CD9E582600302000315
:041CD90075820022EE
:00000001FF
