:03000000020008F3
:0300610002000397
:0500030012006480FE04
:0D00640090000074BCF0900001743BF0901F
:0E007100000274B4F090000374ABF090000431
:0E007F0074DEF090000574E3F09000067481CA
:0E008D00F0900007741EF090000874F5F090DB
:0E009B00000974C5F090000A749FF090000BED
:0E00A9007433F090000C746CF090000D743DF8
:0E00B700F090000E7467F090000F74CFF09080
:0E00C500001074BEF09000117444F090001210
:0E00D3007457F0900013747DF090001474DAEE
:0E00E100F090001574A3F090001674BFF0901C
:0E00EF00001774CDF09000187488F09000197E
:0E00FD0074D5F090001A742DF090001B74A6BC
:0E010B00F090001C748CF090001D7468F09051
:0E011900001E74EFF090001F74FEF0900020A6
:0E01270074DFF090002174B1F090002274D5C6
:0E013500F09000237457F09000247486F09030
:0E01430000257490F090002674C1F090002703
:0E01510074F6F0900028743FF090002974447A
:0E015F00F090002A74C5F090002B74E9F09027
:0E016D00002C749DF090002D7417F090002E61
:0E017B0074E2F090002F745BF090003074BDC1
:0E018900F09000317483F090003274D1F09049
:0E01970000337452F090003474D8F0900035AC
:0E01A50074C8F090003674A4F0900037748394
:0E01B300F090003874A9F09000397483F09039
:0E01C100003A748CF090003B7474F090003C97
:0E01CF00740EF090003D74E0F090003E741746
:0E01DD00F090003F740EF090004074C6F09059
:0E01EB000041743DF09000427494F090004387
:0E01F90074FCF090004474D2F090004574182D
:0E020700F0900046747FF09000477423F09052
:0E021500004874FBF09000497470F090004AAD
:0E022300745DF090004B74FAF090004C740E75
:0E023100F090004D7463F090004E7435F09024
:0E023F00004F7455F090005074CEF0900051B6
:0E024D00745FF09000527457F09000537419D3
:0E025B00F090005474A5F090005574F8F090E7
:0E026900005674E0F09000577439F090005881
:0E0277007459F09000597426F090005A746883
:0E028500F090005B7490F090005C74FAF090C2
:0E029300005D744DF090005E7415F090005FF9
:0E02A10074E9F09000607460F09000617437B2
:0E02AF00F090006274E8F0900063743FF090ED
:0E02BD00006474F1F0900065743CF0900066EF
:0E02CB0074A8F09000677417F0900068742615
:0E02D900F0900069741FF090006A74DDF090E0
:0E02E700006B744BF090006C74ABF090006DE7
:0E02F50074D7F090006E74F3F090006F7446B2
:0E030300F09000707477F09000717446F090E6
:0E0311000072746BF090007374FAF090007438
:0E031F0074FBF090007574FCF0900076744E44
:0E032D00F0900077746EF090007874F2F0900B
:0E033B0000797438F090007A7476F090007BB0
:0E0349007471F090007C74FEF090007D74C919
:0E035700F090007E745AF090007F7444F09095
:0E036500008074C7F090008174B8F0900082A0
:0E03730074D9F09000837470F09000847410C0
:0E038100F09000857498F09000867442F09021
:0E038F000087741BF090008874A3F090008922
:0E039D0074C4F090008A74EFF090008B74D757
:0E03AB00F090008C743FF090008D748FF090F5
:0E03B900008E7425F090008F747EF0900090FE
:0E03C7007420F090009174B9F0900092744987
:0E03D500F0900093740CF0900094745AF09025
:0E03E3000095748AF0900096740BF0900097CD
:0E03F1007488F090009874C1F09000997455D3
:0E03FF00F090009A746CF090009B7437F090B0
:0E040D00009C74ACF090009D7463F090009E13
:0E041B007481F090009F740FF09000A07402A6
:0E042900F09000A1741FF09000A27476F09085
:0E04370000A37462F09000A474D7F09000A5AA
:0E0445007435F09000A67453F09000A7747701
:0E045300F09000A8742EF09000A97411F090A3
:0E04610000AA7407F09000AB74C8F09000ACD5
:0E046F007469F09000AD7499F09000AE749C2A
:0E047D00F09000AF74B1F09000B07474F09085
:0E048B0000B174B0F09000B274C6F09000B3EF
:0E0499007492F09000B47441F09000B574D8E5
:0E04A700F09000B674D9F09000B774B2F090E7
:0E04B50000B874A6F09000B9746AF09000BA16
:0E04C300743EF09000BB74F4F09000BC74F135
:0E04D100F09000BD74FBF09000BE7499F090A6
:0E04DF0000BF74EDF09000C0748DF09000C16D
:0E04ED00742EF09000C2740CF09000C374E105
:0E04FB00F09000C47444F09000C57420F0909E
:0E05090000C67463F09000C77462F09000C8E2
:0E05170074D1F09000C9749AF09000CA741963
:0E052500F09000CB748AF09000CC74C6F09079
:0E05330000CD7469F09000CE74E0F09000CF1F
:0E054100745FF09000D07430F09000D1748D93
:0E054F00F09000D27420F09000D37476F090FB
:0E055D0000D474CFF09000D57411F09000D649
:0E056B00747EF09000D7746DF09000D8741478
:0E057900F09000D97447F09000DA745BF090B7
:0E05870000DB744FF09000DC74D1F09000DDCA
:0E05950074F4F09000DE74CDF09000DF74AAD4
:0E05A300F09000E074D2F09000E1747CF090D3
:0E05B10000E274ACF09000E374E8F09000E417
:0E05BF0074D4F09000E5E4F09000E674B0F023
:0D05CD009000E77470F09000E8743BF0902F
:0E05DA0000E9740EF09000EA74B6F09000EBA9
:0E05E80074C2F09000EC74D7F09000ED742611
:0E05F600F09000EE7402F09000EF74AFF09001
:0E06040000F07439F09000F17470F09000F284
:0E06120074A3F09000F3745AF09000F4746F2B
:0E062000F09000F574CCF09000F6747CF09031
:0E062E0000F774B9F09000F874E9F09000F94C
:0E063C0074BCF09000FA7473F09000FB74DF51
:0E064A00F09000FC74D1F09000FD74FDF09073
:0E06580000FE74FDF09000FF749BF090010016
:0E0666007494F0900101746FF0900102743DE5
:0E067400F0900103742AF09001047405F090D8
:0E06820001057439F0900106741BF090010719
:0E0690007468F0900108743AF0900109742328
:0E069E00F090010A74D2F090010B741BF090E2
:0E06AC00010C7411F090010D7439F090010EE4
:0E06BA0074C3F090010F743BF090011074DFD8
:0E06C800F0900111741EF09001127463F09016
:0E06D60001137407F090011474ABF09001153D
:0E06E4007471F09001167422F09001177410DA
:0E06F200F09001187417F090011974D0F09078
:0E070000011A74DFF090011B74C9F090011C07
:0E070E00748BF090011D74FAF090011E747946
:0E071C00F090011F74EDF0900120749DF0909C
:0E072A000121742BF09001227488F0900123BD
:0E073800744FF09001247423F0900125749CFE
:0E074600F090012674C1F090012774A2F0908B
:0E07540001287432F09001297493F090012A6C
:0E0762007421F090012B747EF090012C7446EF
:0E077000F090012D7435F090012E740BF09076
:0E077E00012F7409F090013074BDF09001312C
:0E078C0074DDF090013274B6F090013374FA0F
:0E079A00F090013474B2F0900135749CF09030
:0E07A800013674E5F0900137747BF090013853
:0E07B60074E7F0900139747DF090013A747789
:0E07C400F090013B748AF090013C7438F09084
:0E07D200013D74C0F090013E743DF090013F77
:0E07E00074E1F0900140748EF090014174615C
:0E07EE00F090014274EFF090014374BAF09065
:0E07FC00014474BEF090014574CBF0900146AC
:0E080A007415F0900147744AF090014874B9DB
:0E081800F0900149749CF090014A74B0F09089
:0E082600014B7476F090014C7426F090014D59
:0E0834007452F090014E744EF090014F7423F8
:0E084200F09001507472F090015174F5F09036
:0E0850000152E4F0900153746BF09001547467
:0E085E003FF090015574A9F09001567412F00D
:0D086C0090015774B5F090015874D1F090D0
:0E08790001597497F090015A744EF090015B93
:0E08870074BAF090015C7465F090015D74A687
:0E089500F090015E7402F090015F74EAF09042
:0E08A300016074A4F09001617424F090016271
:0E08B100748EF0900163747AF0900164749B71
:0E08BF00F09001657428F0900166746FF0905F
:0E08CD000167743FF090016874EFF0900169CC
:0E08DB007480F090016A7491F090016B74D0FB
:0E08E900F090016C7438F090016D7425F09061
:0E08F700016E7487F090016F7417F09001701D
:0E0905007449F0900171743CF090017274D549
:0E091300F09001737478F090017474C3F0904A
:0E0921000175743DF090017674D4F09001776A
:0E092F0074C8F09001787477F0900179740725
:0E093D00F090017A749EF090017B7427F09088
:0E094B00017C7408F090017D7463F090017ED1
:0E095900747CF090017F7441F090018074383E
:0E096700F09001817447F09001827426F090A8
:0E0975000183748FF090018474EFF09001857F
:0E0983007467F090018674BDF090018774E4F3
:0E099100F0900188745CF0900189743BF09046
:0E099F00018A7410F090018B7428F090018C86
:0E09AD0074C0F090018D7470F090018E74DAB9
:0E09BB00F090018F7481F090019074DFF09045
:0E09C90001917446F090019274B6F090019383
:0E09D70074F3F090019474A5F090019574757E
:0E09E500F090019674F4F09001977477F09002
:0E09F3000198743EF090019974AAF090019A58
:0E0A01007493F090019B74C8F090019C7453A4
:0E0A0F00F090019D749CF090019E747EF0901A
:0E0A1D00019F74F0F09001A074FDF09001A113
:0E0A2B0074E0F09001A27489F09001A3749D14
:0E0A3900F09001A47428F09001A574CAF0900A
:0E0A470001A674ACF09001A77488F09001A88D
:0E0A550074D1F09001A974EEF09001AA74F82B
:0E0A6300F09001AB7437F09001AC7496F090F7
:0E0A710001AD7466F09001AE7463F09001AFB9
:0E0A7F00744EF09001B0748BF09001B1744F82
:0E0A8D00F09001B27439F09001B3746DF090E6
:0E0A9B0001B474BEF09001B57427F09001B65E
:0E0AA9007426F09001B7744DF09001B87459A6
:0E0AB700F09001B97495F09001BA74C1F090FE
:0E0AC50001BB740BF09001BC740EF09001BDEB
:0E0AD3007404F09001BE7466F09001BF7412BE
:0E0AE100F09001C07472F09001C174D1F090D9
:0E0AEF0001C274F3F09001C3741EF09001C4B4
:0E0AFD0074BBF09001C574DFF09001C6749CCC
:0E0B0B00F09001C7749DF09001C8742EF09018
:0E0B190001C97465F09001CA74E6F09001CB3A
:0E0B27007475F09001CC7439F09001CD749685
:0E0B3500F09001CE741FF09001CF74A0F090EC
:0E0B430001D074CFF09001D17472F09001D205
:0E0B510074DFF09001D37489F09001D47430F9
:0E0B5F00F09001D574EEF09001D67481F09004
:0E0B6D0001D77492F09001D874EBF09001D98A
:0E0B7B0074B8F09001DA74A4F09001DB74B04D
:0E0B8900F09001DC742EF09001DD740BF09002
:0E0B970001DE7432F09001DF7455F09001E041
:0E0BA500742DF09001E17483F09001E274531E
:0E0BB300F09001E37417F09001E4742BF090C1
:0E0BC10001E574FFF09001E6744FF09001E73B
:0E0BCF00748FF09001E874C4F09001E974F1A5
:0E0BDD00F09001EA7449F09001EB743DF09045
:0E0BEB0001EC7428F09001ED74D9F09001EE49
:0E0BF90074FDF09001EF7450F09001F074C69E
:0E0C0700F09001F1748FF09001F2745CF090A7
:0E0C150001F374A5F09001F47490F09001F5D5
:0E0C23007433F09001F67483F09001F774467C
:0E0C3100F09001F87416F09001F97443F09001
:0E0C3F0001FA748CF09001FB7420F09001FC1F
:0E0C4D00742EF09001FD7402F09001FE74020E
:0D0C5B00F09001FF7465F0900200E4F0904D
:0E0C68000201F0900202F0900203F0900204EC
:0E0C7600E4F0900205F0900206F0900207F004
:0E0C8400900208E4F0900209F090020AF0904D
:0D0C9200020BF090020CE4F090020DF090C7
:0D0C9F00020EF090020FF0900210E4F090B1
:0E0CAC000211F0900212F0900213F090021468
:0E0CBA00E4F0900215F0900216F0900217F090
:0E0CC800900218E4F0900219F090021AF090D9
:0D0CD600021BF090021CE4F090021DF09053
:0D0CE300021EF090021FF0900220E4F0903D
:0E0CF0000221F0900222F0900223F0900224E4
:0E0CFE00E4F0900225F0900226F0900227F01C
:0E0D0C00900228E4F0900229F090022AF09064
:0D0D1A00022BF090022CE4F090022DF090DE
:0D0D2700022EF090022FF0900230E4F090C8
:0E0D34000231F0900232F0900233F09002345F
:0E0D4200E4F0900235F0900236F0900237F0A7
:0E0D5000900238E4F0900239F090023AF090F0
:0D0D5E00023BF090023CE4F090023DF0906A
:0D0D6B00023EF090023FF0900240E4F09054
:0E0D78000241F0900242F0900243F0900244DB
:0E0D8600E4F0900245F0900246F0900247F033
:0E0D9400900248E4F0900249F090024AF0907C
:0D0DA200024BF090024CE4F090024DF090F6
:0D0DAF00024EF090024FF0900250E4F090E0
:0E0DBC000251F0900252F0900253F090025457
:0E0DCA00E4F0900255F0900256F0900257F0BF
:0E0DD800900258E4F0900259F090025AF09008
:0D0DE600025BF090025CE4F090025DF09082
:0D0DF300025EF090025FF0900260E4F0906C
:0E0E00000261F0900262F0900263F0900264D2
:0E0E0E00E4F0900265F0900266F0900267F04A
:0E0E1C00900268E4F0900269F090026AF09093
:0D0E2A00026BF090026CE4F090026DF0900D
:0D0E3700026EF090026FF0900270E4F090F7
:0E0E44000271F0900272F0900273F09002744E
:0E0E5200E4F0900275F0900276F0900277F0D6
:0E0E6000900278E4F0900279F090027AF0901F
:0D0E6E00027BF090027CE4F090027DF09099
:0D0E7B00027EF090027FF0900280E4F09083
:0E0E88000281F0900282F0900283F0900284CA
:0E0E9600E4F0900285F0900286F0900287F062
:0E0EA400900288E4F0900289F090028AF090AB
:0D0EB200028BF090028CE4F090028DF09025
:0D0EBF00028EF090028FF0900290E4F0900F
:0E0ECC000291F0900292F0900293F090029446
:0E0EDA00E4F0900295F0900296F0900297F0EE
:0E0EE800900298E4F0900299F090029AF09037
:0D0EF600029BF090029CE4F090029DF090B1
:0D0F0300029EF090029FF09002A0E4F0909A
:0E0F100002A1F09002A2F09002A3F09002A4C1
:0E0F1E00E4F09002A5F09002A6F09002A7F079
:0E0F2C009002A8E4F09002A9F09002AAF090C2
:0D0F3A0002ABF09002ACE4F09002ADF0903C
:0D0F470002AEF09002AFF09002B0E4F09026
:0E0F540002B1F09002B2F09002B3F09002B43D
:0E0F6200E4F09002B5F09002B6F09002B7F005
:0E0F70009002B8E4F09002B9F09002BAF0904E
:0D0F7E0002BBF09002BCE4F09002BDF090C8
:0D0F8B0002BEF09002BFF09002C0E4F090B2
:0E0F980002C1F09002C2F09002C3F09002C4B9
:0E0FA600E4F09002C5F09002C6F09002C7F091
:0E0FB4009002C8E4F09002C9F09002CAF090DA
:0D0FC20002CBF09002CCE4F09002CDF09054
:0D0FCF0002CEF09002CFF09002D0E4F0903E
:0E0FDC0002D1F09002D2F09002D3F09002D435
:0E0FEA00E4F09002D5F09002D6F09002D7F01D
:0E0FF8009002D8E4F09002D9F09002DAF09066
:0D10060002DBF09002DCE4F09002DDF090DF
:0D10130002DEF09002DFF09002E0E4F090C9
:0E10200002E1F09002E2F09002E3F09002E4B0
:0E102E00E4F09002E5F09002E6F09002E7F0A8
:0E103C009002E8E4F09002E9F09002EAF090F1
:0D104A0002EBF09002ECE4F09002EDF0906B
:0D10570002EEF09002EFF09002F0E4F09055
:0E10640002F1F09002F2F09002F3F09002F42C
:0E107200E4F09002F5F09002F6F09002F7F034
:0E1080009002F8E4F09002F9F09002FAF0907D
:0D108E0002FBF09002FCE4F09002FDF090F7
:0D109B0002FEF09002FFF0900300E4F090E0
:0E10A8000301F0900302F0900303F0900304A4
:0E10B600E4F0900305F0900306F0900307F0BD
:0E10C400900308E4F0900309F090030AF09006
:0D10D200030BF090030CE4F090030DF09080
:0D10DF00030EF090030FF0900310E4F0906A
:0E10EC000311F0900312F0900313F090031420
:0E10FA00E4F0900315F0900316F0900317F049
:0E110800900318E4F0900319F090031AF09091
:0D111600031BF090031CE4F090031DF0900B
:0D112300031EF090031FF0900320E4F090F5
:0E1130000321F0900322F0900323F09003249B
:0E113E00E4F0900325F0900326F0900327F0D4
:0E114C00900328E4F0900329F090032AF0901D
:0D115A00032BF090032CE4F090032DF09097
:0D116700032EF090032FF0900330E4F09081
:0E1174000331F0900332F0900333F090033417
:0E118200E4F0900335F0900336F0900337F060
:0E119000900338E4F0900339F090033AF090A9
:0D119E00033BF090033CE4F090033DF09023
:0D11AB00033EF090033FF0900340E4F0900D
:0E11B8000341F0900342F0900343F090034493
:0E11C600E4F0900345F0900346F0900347F0EC
:0E11D400900348E4F0900349F090034AF09035
:0D11E200034BF090034CE4F090034DF090AF
:0D11EF00034EF090034FF0900350E4F09099
:0E11FC000351F0900352F0900353F09003540F
:0E120A00E4F0900355F0900356F0900357F077
:0E121800900358E4F0900359F090035AF090C0
:0D122600035BF090035CE4F090035DF0903A
:0D123300035EF090035FF0900360E4F09024
:0E1240000361F0900362F0900363F09003648A
:0E124E00E4F0900365F0900366F0900367F003
:0E125C00900368E4F0900369F090036AF0904C
:0D126A00036BF090036CE4F090036DF090C6
:0D127700036EF090036FF0900370E4F090B0
:0E1284000371F0900372F0900373F090037406
:0E129200E4F0900375F0900376F0900377F08F
:0E12A000900378E4F0900379F090037AF090D8
:0D12AE00037BF090037CE4F090037DF09052
:0E12BB00037EF090037FF09003807476F09035
:0E12C900038174E6F09003827493F090038327
:0E12D7007460F09003847499F0900385745154
:0E12E500F090038674ADF090038774D4F090FF
:0E12F300038874B0F09003897430F090038A81
:0E1301007482F090038B74D4F090038C74D03F
:0E130F00F090038D742CF090038E7461F090BA
:0E131D00038F7407F0900390745AF0900391C0
:0E132B007434F09003927488F0900393742051
:0E133900F09003947441F090039574DAF090F4
:0E134700039674A6F0900397743EF0900398FE
:0E135500747DF0900399740EF090039A74FE6C
:0E136300F090039B74AEF090039C7497F09092
:0E137100039D7470F090039E7408F090039F2B
:0E137F007419F09003A074DEF09003A1746660
:0E138D00F09003A27467F09003A37459F090DF
:0E139B0003A474B8F09003A574E5F09003A6C7
:0E13A90074F8F09003A774E9F09003A8745153
:0E13B700F09003A97436F09003AA74F6F0903B
:0E13C50003AB74B0F09003AC7417F09003AD5E
:0E13D3007405F09003AE74C8F09003AF74DDA3
:0E13E100F09003B07431F09003B1748CF09072
:0E13EF0003B2741AF09003B37492F09003B43A
:0E13FD0074D6F09003B57484F09003B67416A5
:0E140B00F09003B77405F09003B874BFF09032
:0E14190003B974B5F09003BA74C9F09003BB28
:0E14270074D6F09003BC748EF09003BD741167
:0E143500F09003BE744DF09003BF74B0F090C1
:0E14430003C07439F09003C17442F09003C2EC
:0E1451007464F09003C3748CF09003C4748232
:0E145F00F09003C574F4F09003C674BCF090D6
:0E146D0003C77449F09003C874C0F09003C91F
:0E147B00743BF09003CA74B8F09003CB747CFD
:0E148900F09003CC7463F09003CD742CF090BF
:0E14970003CE7443F09003CF741EF09003D088
:0E14A50074B2F09003D1742DF09003D2744510
:0E14B300F09003D37426F09003D47431F090BF
:0E14C10003D5745DF09003D674CCF09003D781
:0E14CF007497F09003D874ABF09003D9742F8B
:0E14DD00F09003DA7433F09003DB7474F09037
:0E14EB0003DC74D1F09003DD741AF09003DE80
:0E14F900745DF09003DF7410F09003E0745BFC
:0E150700F09003E17411F09003E274D3F090C1
:0E15150003E374F1F09003E4749AF09003E5A0
:0E1523007418F09003E6748FF09003E7745A8A
:0E153100F09003E874A1F09003E974FAF090D2
:0E153F0003EA748AF09003EB7449F09003EC19
:0E154D00743FF09003ED740FF09003EE748E77
:0E155B00F09003EF748BF09003F0749AF09010
:0E15690003F17485F09003F274E3F09003F345
:0E15770074ADF09003F4746EF09003F574CC34
:0E158500F09003F6749BF09003F774ABF090B7
:0E15930003F87455F09003F9741BF09003FAFE
:0E15A10074A8F09003FB7434F09003FC7419EE
:0E15AF00F09003FD7464F09003FE749DF090C4
:0E15BD0003FF7411F090037F7401F090037E21
:0C15CB007401F090027F7401F0750800BC
:0715D700750901750A80751A
:0615DE000B02750C807584
:0915E4000D009000001218907532
:0615ED00120075130375E6
:0615F3001480751502755D
:0915F900168075170190028012A2
:06160200191275080075C5
:061608000902750A80755D
:06160E000B02750C807553
:091614000D0090028012189012E2
:06161D001882750800753B
:061623000901750A807543
:061629000B02750C807538
:09162F000D009002801218907564
:061638001280751303751A
:06163E0014807515027511
:0916440016807517019002801256
:06164D001912750800757A
:061653000902750A807512
:061659000B02750C807508
:09165F000D009002801218901297
:06166800188275B0552246
:07166E0085821C85831D75B8
:0616750022007D007E0052
:0C167B0074FF2E4013ED251AF582EE35A9
:0C1687001BF583E4F00DBD00EB0E80E8C5
:06169300751E7FE4F51F47
:06169900E51F30E701220D
:06169F00E51E251CFFE51D
:0516A5001F351DF87562
:0516AA00207FE4F521A2
:0C16AF00E52120E75B8F828883E0FBE5EB
:0616BB00202518F582E570
:0A16C100213519F583E08BF0A4FC3D
:0816CB00ABF0E520251EFDE552
:0916D30021351FFE0DBD00010EC2
:0A16DC00ED251AFDEE351BFE8D8290
:0C16E6008E83E079002CFCE93BFBAA227B
:0E16F2007900EA2CFCE93BFB8C028D828E8392
:09170000EAF08B22152074FFB5FC
:041709002002152184
:02170D0080A0BA
:07170F00E51E251AF582E535
:061716001F351BF583E501
:06171C0022F07522001509
:071722001E74FFB51E021545
:011729001FA0
:03172A000216990B
:08172D0085821B85831C7C00F2
:0C173500AD1A7E00ED24FFFFEE34FFF83B
:0E1741008C017A00C3E99FEA648088F063F0AF
:0C174F008095F0502CEC251BF582E43551
:0A175B001CF583E0FAEC2518F58276
:0C176500E43519F583E0FBC39A500475CD
:03177100820122D0
:09177400C3EA9B500475820022B7
:03177D000C80B528
:051780001DBDFF011E6C
:0A178500ED251BF582EE351CF583FF
:0A178F00E0FAED2518F582EE351999
:0D179900F583E0FBC3EA9BE433FAB40100E2
:0517A600E433F582228E
:0C17AB00E582247FF582AA82AB838518BA
:0C17B70082851983E582247FF582AC82D4
:0A17C300AD83851A82851B83E58241
:0A17CD00247FF582AE82AF8378809E
:0E17D7008A828B83E0F98C828D83E0398E82CA
:0E17E5008F83F01A1C1ED8EA74003400F582BF
:0117F30022D3
:0C17F400E582247FF582AA82AB83851871
:0C18000082851983E582247FF582AC828A
:0A180C00AD83851A82851B83E582F7
:0A181600247FF582AE82AF83788054
:0E1820008C828D83E0F98A828B83E0998E8220
:0E182E008F83F01A1C1ED8EA74003400F58275
:01183C002289
:0A183D00AA82AB83AC18AD197E003F
:021847007F0020
:0E184900C3EE9480EF64809480501D8C828DDD
:0E18570083E0F8A3AC82AD838A828B83E8F035
:0C186500A3AA82AB830EBE00DB0F80D86C
:011871002254
:0618720075900175900263
:0A187800900800E060FA759003226A
:0E18820090078074FFF0900781E4F002187266
:0A1890008582188583199006001266
:04189A00183D850868
:03189E00188509A1
:0818A1001990068012183D8524
:0318A9000C188593
:0618AC000D199007001267
:0E18B200183D9007807403F09007817440F099
:0D18C0009007827445F09007837401F0904A
:0E18CD0007847450F0900785E4F012187275CD
:0618DB00180075190685D6
:0618E1000A82850B830260
:0218E700183DAA
:0D18E9009007807403F09007817499F090CF
:0E18F60007827450F0900783E4F012187275A8
:06190400180075190685AC
:06190A001082851183022A
:02191000183D80
:08191200AA82AB83851618853B
:0A191A001719900600C002C0031266
:09192400183DD003D0028A188B93
:0B192D001990068012183D7A007B0024
:0A193800EA2512F582EB3513F58362
:06194200E0FC60028012CF
:0E194800C3EA9480EB6480948050070ABA00D2
:04195600E10B80DE43
:0E195A009007807440F07C027D00900781743D
:0219680045F048
:0E196A00C3EA9480EB648094804003021B3635
:0A197800EA2512F582EB3513F58322
:0B198200E0FE8C078D000CBC00010D86
:0E198D00EF2480F582E83407F5837402F0EE53
:0C199B0030E7168C078D000CBC00010D1D
:0D19A700EF2480F582E83407F5837401F029
:0919B4008C078D000CBC00010D34
:0E19BD00EF2480F582E83407F5837402F0EE23
:0C19CB0030E6168C078D000CBC00010DEE
:0D19D700EF2480F582E83407F5837401F0F9
:0919E4008C078D000CBC00010D04
:0E19ED00EF2480F582E83407F5837402F0EEF3
:0C19FB0030E5168C078D000CBC00010DBF
:0D1A0700EF2480F582E83407F5837401F0C8
:091A14008C078D000CBC00010DD3
:0E1A1D00EF2480F582E83407F5837402F0EEC2
:0C1A2B0030E4168C078D000CBC00010D8F
:0D1A3700EF2480F582E83407F5837401F098
:091A44008C078D000CBC00010DA3
:0E1A4D00EF2480F582E83407F5837402F0EE92
:0C1A5B0030E3168C078D000CBC00010D60
:0D1A6700EF2480F582E83407F5837401F068
:091A74008C078D000CBC00010D73
:0E1A7D00EF2480F582E83407F5837402F0EE62
:0C1A8B0030E2168C078D000CBC00010D31
:0D1A9700EF2480F582E83407F5837401F038
:091AA4008C078D000CBC00010D43
:0E1AAD00EF2480F582E83407F5837402F0EE32
:0C1ABB0030E1168C078D000CBC00010D02
:0D1AC700EF2480F582E83407F5837401F008
:091AD4008C078D000CBC00010D13
:0E1ADD00EF2480F582E83407F5837402F0EE02
:0C1AEB0030E0168C068D070CBC00010DCD
:0D1AF700EE2480F582EF3407F5837401F0D2
:0E1B0400C374649C74808DF063F08095F05083
:0E1B12001BEC2480F582ED3407F583E4F0C06F
:0E1B200002C003121872D003D0027C007D00B8
:051B2E000ABA00010BE2
:031B330002196A2A
:091B36008C028D030CBC00010DB2
:0E1B3F00EA2480F582EB3407F5837450F0EC55
:0E1B4D002480F582ED3407F583E4F01218725F
:071B5B0075180075190685DD
:061B6200148285158302C8
:021B6800183D26
:06003700E4787FF6D8FD1D
:080015007900E94400601B7A48
:05001D0000901B6E784D
:030022000075A0C6
:0A00250000E493F2A308B8000205FE
:08002F00A0D9F4DAF275A0FF7C
:08003D007800E84400600A7934
:030045000075A0A3
:0600480000E4F309D8FCFE
:08004E007800E84400600C7921
:0B00560000900000E4F0A3D8FCD9FAF1
:03000800758122DD
:0A000B00121B6AE582600302000385
:041B6A00758200225E
:00000001FF
